{
  "_format": "hh-sol-artifact-1",
  "contractName": "SP1VerifierGateway",
  "sourceName": "contracts/SP1VerifierGateway.sol",
  "abi": [
    {
      "anonymous": false,
      "inputs": [
        {
          "indexed": true,
          "internalType": "bytes32",
          "name": "vkey",
          "type": "bytes32"
        },
        {
          "indexed": false,
          "internalType": "bytes",
          "name": "publicValues",
          "type": "bytes"
        }
      ],
      "name": "ProofVerified",
      "type": "event"
    },
    {
      "inputs": [],
      "name": "PASSPORT_VKEY",
      "outputs": [
        {
          "internalType": "bytes32",
          "name": "",
          "type": "bytes32"
        }
      ],
      "stateMutability": "view",
      "type": "function"
    },
    {
      "inputs": [],
      "name": "SP1_VERIFIER",
      "outputs": [
        {
          "internalType": "address",
          "name": "",
          "type": "address"
        }
      ],
      "stateMutability": "view",
      "type": "function"
    },
    {
      "inputs": [
        {
          "internalType": "bytes",
          "name": "publicValues",
          "type": "bytes"
        },
        {
          "internalType": "bytes",
          "name": "proofBytes",
          "type": "bytes"
        }
      ],
      "name": "verifyPassportProof",
      "outputs": [],
      "stateMutability": "view",
      "type": "function"
    }
  ],
  "bytecode": "0x608060405234801561001057600080fd5b506102a8806100206000396000f3fe608060405234801561001057600080fd5b50600436106100415760003560e01c806378dbfee11461004657806379813b3d1461007e578063e718377f146100b2575b600080fd5b61006173397a5f7f3dbd538f23de225b51f532c34448da9b81565b6040516001600160a01b0390911681526020015b60405180910390f35b6100a47e1cb39b2a1dce45a425e1be3ca098e27b1d6dc8b898ee6f6ee1108144eecf1d81565b604051908152602001610075565b6100c56100c03660046101a4565b6100c7565b005b60405163020a49e360e51b815273397a5f7f3dbd538f23de225b51f532c34448da9b906341493c6090610125907e1cb39b2a1dce45a425e1be3ca098e27b1d6dc8b898ee6f6ee1108144eecf1d908890889088908890600401610239565b60006040518083038186803b15801561013d57600080fd5b505afa158015610151573d6000803e3d6000fd5b5050505050505050565b60008083601f84011261016d57600080fd5b50813567ffffffffffffffff81111561018557600080fd5b60208301915083602082850101111561019d57600080fd5b9250929050565b600080600080604085870312156101ba57600080fd5b843567ffffffffffffffff808211156101d257600080fd5b6101de8883890161015b565b909650945060208701359150808211156101f757600080fd5b506102048782880161015b565b95989497509550505050565b81835281816020850137506000828201602090810191909152601f909101601f19169091010190565b858152606060208201526000610253606083018688610210565b8281036040840152610266818587610210565b9897505050505050505056fea26469706673582212208e616d7095861f72a7839bb12da631fe324dadbbe7a63f00bc60fc1cfd534fe164736f6c63430008140033",
  "linkReferences": {},
  "deployedLinkReferences": {}
}