{
  "_format": "hh-sol-artifact-1",
  "contractName": "PassportRegistry",
  "sourceName": "contracts/PassportRegistry.sol",
  "abi": [
    {
      "inputs": [],
      "name": "InvalidProof",
      "type": "error"
    },
    {
      "inputs": [],
      "name": "NotOverRequiredAge",
      "type": "error"
    },
    {
      "inputs": [],
      "name": "PassportAlreadyBoundToWallet",
      "type": "error"
    },
    {
      "inputs": [],
      "name": "PassportAlreadyVerifiedForAge",
      "type": "error"
    },
    {
      "inputs": [],
      "name": "PassportAlreadyVerifiedForNationality",
      "type": "error"
    },
    {
      "anonymous": false,
      "inputs": [
        {
          "indexed": true,
          "internalType": "bytes32",
          "name": "passportCommitment",
          "type": "bytes32"
        },
        {
          "indexed": false,
          "internalType": "bool",
          "name": "isOverAge",
          "type": "bool"
        },
        {
          "indexed": true,
          "internalType": "address",
          "name": "verifier",
          "type": "address"
        }
      ],
      "name": "AgeVerified",
      "type": "event"
    },
    {
      "anonymous": false,
      "inputs": [
        {
          "indexed": true,
          "internalType": "bytes32",
          "name": "passportCommitment",
          "type": "bytes32"
        },
        {
          "indexed": true,
          "internalType": "address",
          "name": "verifier",
          "type": "address"
        }
      ],
      "name": "NationalityVerified",
      "type": "event"
    },
    {
      "anonymous": false,
      "inputs": [
        {
          "indexed": true,
          "internalType": "bytes32",
          "name": "passportCommitment",
          "type": "bytes32"
        },
        {
          "indexed": true,
          "internalType": "address",
          "name": "walletAddress",
          "type": "address"
        }
      ],
      "name": "WalletBound",
      "type": "event"
    },
    {
      "inputs": [],
      "name": "PASSPORT_VKEY",
      "outputs": [
        {
          "internalType": "bytes32",
          "name": "",
          "type": "bytes32"
        }
      ],
      "stateMutability": "view",
      "type": "function"
    },
    {
      "inputs": [],
      "name": "SP1_VERIFIER",
      "outputs": [
        {
          "internalType": "address",
          "name": "",
          "type": "address"
        }
      ],
      "stateMutability": "view",
      "type": "function"
    },
    {
      "inputs": [
        {
          "internalType": "bytes",
          "name": "publicValues",
          "type": "bytes"
        },
        {
          "internalType": "bytes",
          "name": "proofBytes",
          "type": "bytes"
        }
      ],
      "name": "bindWallet",
      "outputs": [],
      "stateMutability": "nonpayable",
      "type": "function"
    },
    {
      "inputs": [
        {
          "internalType": "bytes32",
          "name": "passportCommitment",
          "type": "bytes32"
        }
      ],
      "name": "getBoundWallet",
      "outputs": [
        {
          "internalType": "address",
          "name": "",
          "type": "address"
        }
      ],
      "stateMutability": "view",
      "type": "function"
    },
    {
      "inputs": [
        {
          "internalType": "bytes32",
          "name": "passportCommitment",
          "type": "bytes32"
        }
      ],
      "name": "isAgeVerified",
      "outputs": [
        {
          "internalType": "bool",
          "name": "",
          "type": "bool"
        }
      ],
      "stateMutability": "view",
      "type": "function"
    },
    {
      "inputs": [
        {
          "internalType": "bytes32",
          "name": "passportCommitment",
          "type": "bytes32"
        }
      ],
      "name": "isNationalityVerified",
      "outputs": [
        {
          "internalType": "bool",
          "name": "",
          "type": "bool"
        }
      ],
      "stateMutability": "view",
      "type": "function"
    },
    {
      "inputs": [
        {
          "internalType": "bytes32",
          "name": "",
          "type": "bytes32"
        }
      ],
      "name": "passportWalletBindings",
      "outputs": [
        {
          "internalType": "address",
          "name": "",
          "type": "address"
        }
      ],
      "stateMutability": "view",
      "type": "function"
    },
    {
      "inputs": [
        {
          "internalType": "bytes32",
          "name": "",
          "type": "bytes32"
        }
      ],
      "name": "verifiedAgePassports",
      "outputs": [
        {
          "internalType": "bool",
          "name": "",
          "type": "bool"
        }
      ],
      "stateMutability": "view",
      "type": "function"
    },
    {
      "inputs": [
        {
          "internalType": "bytes32",
          "name": "",
          "type": "bytes32"
        }
      ],
      "name": "verifiedNationalityPassports",
      "outputs": [
        {
          "internalType": "bool",
          "name": "",
          "type": "bool"
        }
      ],
      "stateMutability": "view",
      "type": "function"
    },
    {
      "inputs": [
        {
          "internalType": "bytes",
          "name": "publicValues",
          "type": "bytes"
        },
        {
          "internalType": "bytes",
          "name": "proofBytes",
          "type": "bytes"
        }
      ],
      "name": "verifyAge",
      "outputs": [],
      "stateMutability": "nonpayable",
      "type": "function"
    },
    {
      "inputs": [
        {
          "internalType": "bytes",
          "name": "publicValues",
          "type": "bytes"
        },
        {
          "internalType": "bytes",
          "name": "proofBytes",
          "type": "bytes"
        }
      ],
      "name": "verifyNationality",
      "outputs": [],
      "stateMutability": "nonpayable",
      "type": "function"
    }
  ],
  "bytecode": "0x608060405234801561001057600080fd5b506107d8806100206000396000f3fe608060405234801561001057600080fd5b50600436106100a95760003560e01c806379813b3d1161007157806379813b3d1461016a578063983312831461018d578063afcdbfdc146101b0578063b47034f7146101d3578063e4fe7f47146101e6578063eb24a3141461020f57600080fd5b806311cc1cee146100ae57806311e4810f146100c357806329505fe4146100fb57806346aea4321461013c57806378dbfee11461014f575b600080fd5b6100c16100bc36600461062e565b610232565b005b6100e66100d136600461069a565b60016020526000908152604090205460ff1681565b60405190151581526020015b60405180910390f35b61012461010936600461069a565b6002602052600090815260409020546001600160a01b031681565b6040516001600160a01b0390911681526020016100f2565b6100c161014a36600461062e565b610355565b61012473397a5f7f3dbd538f23de225b51f532c34448da9b81565b61017f60008051602061078383398151915281565b6040519081526020016100f2565b6100e661019b36600461069a565b60009081526020819052604090205460ff1690565b6100e66101be36600461069a565b60006020819052908152604090205460ff1681565b6100c16101e136600461062e565b6104ab565b6101246101f436600461069a565b6000908152600260205260409020546001600160a01b031690565b6100e661021d36600461069a565b60009081526001602052604090205460ff1690565b60405163020a49e360e51b815273397a5f7f3dbd538f23de225b51f532c34448da9b906341493c609061027f906000805160206107838339815191529088908890889088906004016106dc565b60006040518083038186803b15801561029757600080fd5b505afa9250505080156102a8575060015b6102c5576040516309bde33960e01b815260040160405180910390fd5b60006102d384860186610715565b60008181526001602052604090205490925060ff16159050610308576040516317f045e960e01b815260040160405180910390fd5b6000818152600160208190526040808320805460ff191690921790915551339183917ffd06da7c578ee040ed13b400ee8f1030e6356d5a5eeaa7cfd1a03b4f7aee74279190a35050505050565b60405163020a49e360e51b815273397a5f7f3dbd538f23de225b51f532c34448da9b906341493c60906103a2906000805160206107838339815191529088908890889088906004016106dc565b60006040518083038186803b1580156103ba57600080fd5b505afa9250505080156103cb575060015b6103e8576040516309bde33960e01b815260040160405180910390fd5b6000806103f785870187610715565b600081815260208190526040902054919350915060ff161561042c57604051636ddb976f60e01b815260040160405180910390fd5b8161044a57604051635e61e0c560e11b815260040160405180910390fd5b60008181526020819052604090819020805460ff1916600117905551339082907f56bdd7a6bfb3e02c2a15f34fb273eb1feda472bea190a7b66157f0f234e593659061049b90861515815260200190565b60405180910390a3505050505050565b60405163020a49e360e51b815273397a5f7f3dbd538f23de225b51f532c34448da9b906341493c60906104f8906000805160206107838339815191529088908890889088906004016106dc565b60006040518083038186803b15801561051057600080fd5b505afa925050508015610521575060015b61053e576040516309bde33960e01b815260040160405180910390fd5b60008061054d85870187610746565b60008281526002602052604090205491935091506001600160a01b0316156105885760405163f2a973df60e01b815260040160405180910390fd5b60008281526002602052604080822080546001600160a01b0319166001600160a01b0385169081179091559051909184917f220ef4882713fe65bba9e73e52963773127ef54f80a02375c1d125c082bc5f029190a3505050505050565b60008083601f8401126105f757600080fd5b50813567ffffffffffffffff81111561060f57600080fd5b60208301915083602082850101111561062757600080fd5b9250929050565b6000806000806040858703121561064457600080fd5b843567ffffffffffffffff8082111561065c57600080fd5b610668888389016105e5565b9096509450602087013591508082111561068157600080fd5b5061068e878288016105e5565b95989497509550505050565b6000602082840312156106ac57600080fd5b5035919050565b81835281816020850137506000828201602090810191909152601f909101601f19169091010190565b8581526060602082015260006106f66060830186886106b3565b82810360408401526107098185876106b3565b98975050505050505050565b6000806040838503121561072857600080fd5b8235801515811461073857600080fd5b946020939093013593505050565b6000806040838503121561075957600080fd5b8235915060208301356001600160a01b038116811461077757600080fd5b80915050925092905056fe001cb39b2a1dce45a425e1be3ca098e27b1d6dc8b898ee6f6ee1108144eecf1da2646970667358221220d5bbd9af4b79eedb40310390491c3c14d0b4a9b1fadaa75c0480015892097e9464736f6c63430008140033",
  "linkReferences": {},
  "deployedLinkReferences": {}
}