{"contracts/PassportRegistry.sol":{"PassportRegistry":{"abi":[{"inputs":[],"name":"InvalidProof","type":"error"},{"inputs":[],"name":"NotOverRequiredAge","type":"error"},{"inputs":[],"name":"PassportAlreadyBoundToWallet","type":"error"},{"inputs":[],"name":"PassportAlreadyVerifiedForAge","type":"error"},{"inputs":[],"name":"PassportAlreadyVerifiedForNationality","type":"error"},{"anonymous":false,"inputs":[{"indexed":true,"internalType":"bytes32","name":"passportCommitment","type":"bytes32"},{"indexed":false,"internalType":"bool","name":"isOverAge","type":"bool"},{"indexed":true,"internalType":"address","name":"verifier","type":"address"}],"name":"AgeVerified","type":"event"},{"anonymous":false,"inputs":[{"indexed":true,"internalType":"bytes32","name":"passportCommitment","type":"bytes32"},{"indexed":true,"internalType":"address","name":"verifier","type":"address"}],"name":"NationalityVerified","type":"event"},{"anonymous":false,"inputs":[{"indexed":true,"internalType":"bytes32","name":"passportCommitment","type":"bytes32"},{"indexed":true,"internalType":"address","name":"walletAddress","type":"address"}],"name":"WalletBound","type":"event"},{"inputs":[],"name":"PASSPORT_VKEY","outputs":[{"internalType":"bytes32","name":"","type":"bytes32"}],"stateMutability":"view","type":"function"},{"inputs":[],"name":"SP1_VERIFIER","outputs":[{"internalType":"address","name":"","type":"address"}],"stateMutability":"view","type":"function"},{"inputs":[{"internalType":"bytes","name":"publicValues","type":"bytes"},{"internalType":"bytes","name":"proofBytes","type":"bytes"}],"name":"bindWallet","outputs":[],"stateMutability":"nonpayable","type":"function"},{"inputs":[{"internalType":"bytes32","name":"passportCommitment","type":"bytes32"}],"name":"getBoundWallet","outputs":[{"internalType":"address","name":"","type":"address"}],"stateMutability":"view","type":"function"},{"inputs":[{"internalType":"bytes32","name":"passportCommitment","type":"bytes32"}],"name":"isAgeVerified","outputs":[{"internalType":"bool","name":"","type":"bool"}],"stateMutability":"view","type":"function"},{"inputs":[{"internalType":"bytes32","name":"passportCommitment","type":"bytes32"}],"name":"isNationalityVerified","outputs":[{"internalType":"bool","name":"","type":"bool"}],"stateMutability":"view","type":"function"},{"inputs":[{"internalType":"bytes32","name":"","type":"bytes32"}],"name":"passportWalletBindings","outputs":[{"internalType":"address","name":"","type":"address"}],"stateMutability":"view","type":"function"},{"inputs":[{"internalType":"bytes32","name":"","type":"bytes32"}],"name":"verifiedAgePassports","outputs":[{"internalType":"bool","name":"","type":"bool"}],"stateMutability":"view","type":"function"},{"inputs":[{"internalType":"bytes32","name":"","type":"bytes32"}],"name":"verifiedNationalityPassports","outputs":[{"internalType":"bool","name":"","type":"bool"}],"stateMutability":"view","type":"function"},{"inputs":[{"internalType":"bytes","name":"publicValues","type":"bytes"},{"internalType":"bytes","name":"proofBytes","type":"bytes"}],"name":"verifyAge","outputs":[],"stateMutability":"nonpayable","type":"function"},{"inputs":[{"internalType":"bytes","name":"publicValues","type":"bytes"},{"internalType":"bytes","name":"proofBytes","type":"bytes"}],"name":"verifyNationality","outputs":[],"stateMutability":"nonpayable","type":"function"}],"evm":{"bytecode":{"linkReferences":{},"object":"608060405234801561001057600080fd5b506107d8806100206000396000f3fe608060405234801561001057600080fd5b50600436106100a95760003560e01c806379813b3d1161007157806379813b3d1461016a578063983312831461018d578063afcdbfdc146101b0578063b47034f7146101d3578063e4fe7f47146101e6578063eb24a3141461020f57600080fd5b806311cc1cee146100ae57806311e4810f146100c357806329505fe4146100fb57806346aea4321461013c57806378dbfee11461014f575b600080fd5b6100c16100bc36600461062e565b610232565b005b6100e66100d136600461069a565b60016020526000908152604090205460ff1681565b60405190151581526020015b60405180910390f35b61012461010936600461069a565b6002602052600090815260409020546001600160a01b031681565b6040516001600160a01b0390911681526020016100f2565b6100c161014a36600461062e565b610355565b61012473397a5f7f3dbd538f23de225b51f532c34448da9b81565b61017f60008051602061078383398151915281565b6040519081526020016100f2565b6100e661019b36600461069a565b60009081526020819052604090205460ff1690565b6100e66101be36600461069a565b60006020819052908152604090205460ff1681565b6100c16101e136600461062e565b6104ab565b6101246101f436600461069a565b6000908152600260205260409020546001600160a01b031690565b6100e661021d36600461069a565b60009081526001602052604090205460ff1690565b60405163020a49e360e51b815273397a5f7f3dbd538f23de225b51f532c34448da9b906341493c609061027f906000805160206107838339815191529088908890889088906004016106dc565b60006040518083038186803b15801561029757600080fd5b505afa9250505080156102a8575060015b6102c5576040516309bde33960e01b815260040160405180910390fd5b60006102d384860186610715565b60008181526001602052604090205490925060ff16159050610308576040516317f045e960e01b815260040160405180910390fd5b6000818152600160208190526040808320805460ff191690921790915551339183917ffd06da7c578ee040ed13b400ee8f1030e6356d5a5eeaa7cfd1a03b4f7aee74279190a35050505050565b60405163020a49e360e51b815273397a5f7f3dbd538f23de225b51f532c34448da9b906341493c60906103a2906000805160206107838339815191529088908890889088906004016106dc565b60006040518083038186803b1580156103ba57600080fd5b505afa9250505080156103cb575060015b6103e8576040516309bde33960e01b815260040160405180910390fd5b6000806103f785870187610715565b600081815260208190526040902054919350915060ff161561042c57604051636ddb976f60e01b815260040160405180910390fd5b8161044a57604051635e61e0c560e11b815260040160405180910390fd5b60008181526020819052604090819020805460ff1916600117905551339082907f56bdd7a6bfb3e02c2a15f34fb273eb1feda472bea190a7b66157f0f234e593659061049b90861515815260200190565b60405180910390a3505050505050565b60405163020a49e360e51b815273397a5f7f3dbd538f23de225b51f532c34448da9b906341493c60906104f8906000805160206107838339815191529088908890889088906004016106dc565b60006040518083038186803b15801561051057600080fd5b505afa925050508015610521575060015b61053e576040516309bde33960e01b815260040160405180910390fd5b60008061054d85870187610746565b60008281526002602052604090205491935091506001600160a01b0316156105885760405163f2a973df60e01b815260040160405180910390fd5b60008281526002602052604080822080546001600160a01b0319166001600160a01b0385169081179091559051909184917f220ef4882713fe65bba9e73e52963773127ef54f80a02375c1d125c082bc5f029190a3505050505050565b60008083601f8401126105f757600080fd5b50813567ffffffffffffffff81111561060f57600080fd5b60208301915083602082850101111561062757600080fd5b9250929050565b6000806000806040858703121561064457600080fd5b843567ffffffffffffffff8082111561065c57600080fd5b610668888389016105e5565b9096509450602087013591508082111561068157600080fd5b5061068e878288016105e5565b95989497509550505050565b6000602082840312156106ac57600080fd5b5035919050565b81835281816020850137506000828201602090810191909152601f909101601f19169091010190565b8581526060602082015260006106f66060830186886106b3565b82810360408401526107098185876106b3565b98975050505050505050565b6000806040838503121561072857600080fd5b8235801515811461073857600080fd5b946020939093013593505050565b6000806040838503121561075957600080fd5b8235915060208301356001600160a01b038116811461077757600080fd5b80915050925092905056fe001cb39b2a1dce45a425e1be3ca098e27b1d6dc8b898ee6f6ee1108144eecf1da2646970667358221220d5bbd9af4b79eedb40310390491c3c14d0b4a9b1fadaa75c0480015892097e9464736f6c63430008140033","opcodes":"PUSH1 0x80 PUSH1 0x40 MSTORE CALLVALUE DUP1 ISZERO PUSH2 0x10 JUMPI PUSH1 0x0 DUP1 REVERT JUMPDEST POP PUSH2 0x7D8 DUP1 PUSH2 0x20 PUSH1 0x0 CODECOPY PUSH1 0x0 RETURN INVALID PUSH1 0x80 PUSH1 0x40 MSTORE CALLVALUE DUP1 ISZERO PUSH2 0x10 JUMPI PUSH1 0x0 DUP1 REVERT JUMPDEST POP PUSH1 0x4 CALLDATASIZE LT PUSH2 0xA9 JUMPI PUSH1 0x0 CALLDATALOAD PUSH1 0xE0 SHR DUP1 PUSH4 0x79813B3D GT PUSH2 0x71 JUMPI DUP1 PUSH4 0x79813B3D EQ PUSH2 0x16A JUMPI DUP1 PUSH4 0x98331283 EQ PUSH2 0x18D JUMPI DUP1 PUSH4 0xAFCDBFDC EQ PUSH2 0x1B0 JUMPI DUP1 PUSH4 0xB47034F7 EQ PUSH2 0x1D3 JUMPI DUP1 PUSH4 0xE4FE7F47 EQ PUSH2 0x1E6 JUMPI DUP1 PUSH4 0xEB24A314 EQ PUSH2 0x20F JUMPI PUSH1 0x0 DUP1 REVERT JUMPDEST DUP1 PUSH4 0x11CC1CEE EQ PUSH2 0xAE JUMPI DUP1 PUSH4 0x11E4810F EQ PUSH2 0xC3 JUMPI DUP1 PUSH4 0x29505FE4 EQ PUSH2 0xFB JUMPI DUP1 PUSH4 0x46AEA432 EQ PUSH2 0x13C JUMPI DUP1 PUSH4 0x78DBFEE1 EQ PUSH2 0x14F JUMPI JUMPDEST PUSH1 0x0 DUP1 REVERT JUMPDEST PUSH2 0xC1 PUSH2 0xBC CALLDATASIZE PUSH1 0x4 PUSH2 0x62E JUMP JUMPDEST PUSH2 0x232 JUMP JUMPDEST STOP JUMPDEST PUSH2 0xE6 PUSH2 0xD1 CALLDATASIZE PUSH1 0x4 PUSH2 0x69A JUMP JUMPDEST PUSH1 0x1 PUSH1 0x20 MSTORE PUSH1 0x0 SWAP1 DUP2 MSTORE PUSH1 0x40 SWAP1 KECCAK256 SLOAD PUSH1 0xFF AND DUP2 JUMP JUMPDEST PUSH1 0x40 MLOAD SWAP1 ISZERO ISZERO DUP2 MSTORE PUSH1 0x20 ADD JUMPDEST PUSH1 0x40 MLOAD DUP1 SWAP2 SUB SWAP1 RETURN JUMPDEST PUSH2 0x124 PUSH2 0x109 CALLDATASIZE PUSH1 0x4 PUSH2 0x69A JUMP JUMPDEST PUSH1 0x2 PUSH1 0x20 MSTORE PUSH1 0x0 SWAP1 DUP2 MSTORE PUSH1 0x40 SWAP1 KECCAK256 SLOAD PUSH1 0x1 PUSH1 0x1 PUSH1 0xA0 SHL SUB AND DUP2 JUMP JUMPDEST PUSH1 0x40 MLOAD PUSH1 0x1 PUSH1 0x1 PUSH1 0xA0 SHL SUB SWAP1 SWAP2 AND DUP2 MSTORE PUSH1 0x20 ADD PUSH2 0xF2 JUMP JUMPDEST PUSH2 0xC1 PUSH2 0x14A CALLDATASIZE PUSH1 0x4 PUSH2 0x62E JUMP JUMPDEST PUSH2 0x355 JUMP JUMPDEST PUSH2 0x124 PUSH20 0x397A5F7F3DBD538F23DE225B51F532C34448DA9B DUP2 JUMP JUMPDEST PUSH2 0x17F PUSH1 0x0 DUP1 MLOAD PUSH1 0x20 PUSH2 0x783 DUP4 CODECOPY DUP2 MLOAD SWAP2 MSTORE DUP2 JUMP JUMPDEST PUSH1 0x40 MLOAD SWAP1 DUP2 MSTORE PUSH1 0x20 ADD PUSH2 0xF2 JUMP JUMPDEST PUSH2 0xE6 PUSH2 0x19B CALLDATASIZE PUSH1 0x4 PUSH2 0x69A JUMP JUMPDEST PUSH1 0x0 SWAP1 DUP2 MSTORE PUSH1 0x20 DUP2 SWAP1 MSTORE PUSH1 0x40 SWAP1 KECCAK256 SLOAD PUSH1 0xFF AND SWAP1 JUMP JUMPDEST PUSH2 0xE6 PUSH2 0x1BE CALLDATASIZE PUSH1 0x4 PUSH2 0x69A JUMP JUMPDEST PUSH1 0x0 PUSH1 0x20 DUP2 SWAP1 MSTORE SWAP1 DUP2 MSTORE PUSH1 0x40 SWAP1 KECCAK256 SLOAD PUSH1 0xFF AND DUP2 JUMP JUMPDEST PUSH2 0xC1 PUSH2 0x1E1 CALLDATASIZE PUSH1 0x4 PUSH2 0x62E JUMP JUMPDEST PUSH2 0x4AB JUMP JUMPDEST PUSH2 0x124 PUSH2 0x1F4 CALLDATASIZE PUSH1 0x4 PUSH2 0x69A JUMP JUMPDEST PUSH1 0x0 SWAP1 DUP2 MSTORE PUSH1 0x2 PUSH1 0x20 MSTORE PUSH1 0x40 SWAP1 KECCAK256 SLOAD PUSH1 0x1 PUSH1 0x1 PUSH1 0xA0 SHL SUB AND SWAP1 JUMP JUMPDEST PUSH2 0xE6 PUSH2 0x21D CALLDATASIZE PUSH1 0x4 PUSH2 0x69A JUMP JUMPDEST PUSH1 0x0 SWAP1 DUP2 MSTORE PUSH1 0x1 PUSH1 0x20 MSTORE PUSH1 0x40 SWAP1 KECCAK256 SLOAD PUSH1 0xFF AND SWAP1 JUMP JUMPDEST PUSH1 0x40 MLOAD PUSH4 0x20A49E3 PUSH1 0xE5 SHL DUP2 MSTORE PUSH20 0x397A5F7F3DBD538F23DE225B51F532C34448DA9B SWAP1 PUSH4 0x41493C60 SWAP1 PUSH2 0x27F SWAP1 PUSH1 0x0 DUP1 MLOAD PUSH1 0x20 PUSH2 0x783 DUP4 CODECOPY DUP2 MLOAD SWAP2 MSTORE SWAP1 DUP9 SWAP1 DUP9 SWAP1 DUP9 SWAP1 DUP9 SWAP1 PUSH1 0x4 ADD PUSH2 0x6DC JUMP JUMPDEST PUSH1 0x0 PUSH1 0x40 MLOAD DUP1 DUP4 SUB DUP2 DUP7 DUP1 EXTCODESIZE ISZERO DUP1 ISZERO PUSH2 0x297 JUMPI PUSH1 0x0 DUP1 REVERT JUMPDEST POP GAS STATICCALL SWAP3 POP POP POP DUP1 ISZERO PUSH2 0x2A8 JUMPI POP PUSH1 0x1 JUMPDEST PUSH2 0x2C5 JUMPI PUSH1 0x40 MLOAD PUSH4 0x9BDE339 PUSH1 0xE0 SHL DUP2 MSTORE PUSH1 0x4 ADD PUSH1 0x40 MLOAD DUP1 SWAP2 SUB SWAP1 REVERT JUMPDEST PUSH1 0x0 PUSH2 0x2D3 DUP5 DUP7 ADD DUP7 PUSH2 0x715 JUMP JUMPDEST PUSH1 0x0 DUP2 DUP2 MSTORE PUSH1 0x1 PUSH1 0x20 MSTORE PUSH1 0x40 SWAP1 KECCAK256 SLOAD SWAP1 SWAP3 POP PUSH1 0xFF AND ISZERO SWAP1 POP PUSH2 0x308 JUMPI PUSH1 0x40 MLOAD PUSH4 0x17F045E9 PUSH1 0xE0 SHL DUP2 MSTORE PUSH1 0x4 ADD PUSH1 0x40 MLOAD DUP1 SWAP2 SUB SWAP1 REVERT JUMPDEST PUSH1 0x0 DUP2 DUP2 MSTORE PUSH1 0x1 PUSH1 0x20 DUP2 SWAP1 MSTORE PUSH1 0x40 DUP1 DUP4 KECCAK256 DUP1 SLOAD PUSH1 0xFF NOT AND SWAP1 SWAP3 OR SWAP1 SWAP2 SSTORE MLOAD CALLER SWAP2 DUP4 SWAP2 PUSH32 0xFD06DA7C578EE040ED13B400EE8F1030E6356D5A5EEAA7CFD1A03B4F7AEE7427 SWAP2 SWAP1 LOG3 POP POP POP POP POP JUMP JUMPDEST PUSH1 0x40 MLOAD PUSH4 0x20A49E3 PUSH1 0xE5 SHL DUP2 MSTORE PUSH20 0x397A5F7F3DBD538F23DE225B51F532C34448DA9B SWAP1 PUSH4 0x41493C60 SWAP1 PUSH2 0x3A2 SWAP1 PUSH1 0x0 DUP1 MLOAD PUSH1 0x20 PUSH2 0x783 DUP4 CODECOPY DUP2 MLOAD SWAP2 MSTORE SWAP1 DUP9 SWAP1 DUP9 SWAP1 DUP9 SWAP1 DUP9 SWAP1 PUSH1 0x4 ADD PUSH2 0x6DC JUMP JUMPDEST PUSH1 0x0 PUSH1 0x40 MLOAD DUP1 DUP4 SUB DUP2 DUP7 DUP1 EXTCODESIZE ISZERO DUP1 ISZERO PUSH2 0x3BA JUMPI PUSH1 0x0 DUP1 REVERT JUMPDEST POP GAS STATICCALL SWAP3 POP POP POP DUP1 ISZERO PUSH2 0x3CB JUMPI POP PUSH1 0x1 JUMPDEST PUSH2 0x3E8 JUMPI PUSH1 0x40 MLOAD PUSH4 0x9BDE339 PUSH1 0xE0 SHL DUP2 MSTORE PUSH1 0x4 ADD PUSH1 0x40 MLOAD DUP1 SWAP2 SUB SWAP1 REVERT JUMPDEST PUSH1 0x0 DUP1 PUSH2 0x3F7 DUP6 DUP8 ADD DUP8 PUSH2 0x715 JUMP JUMPDEST PUSH1 0x0 DUP2 DUP2 MSTORE PUSH1 0x20 DUP2 SWAP1 MSTORE PUSH1 0x40 SWAP1 KECCAK256 SLOAD SWAP2 SWAP4 POP SWAP2 POP PUSH1 0xFF AND ISZERO PUSH2 0x42C JUMPI PUSH1 0x40 MLOAD PUSH4 0x6DDB976F PUSH1 0xE0 SHL DUP2 MSTORE PUSH1 0x4 ADD PUSH1 0x40 MLOAD DUP1 SWAP2 SUB SWAP1 REVERT JUMPDEST DUP2 PUSH2 0x44A JUMPI PUSH1 0x40 MLOAD PUSH4 0x5E61E0C5 PUSH1 0xE1 SHL DUP2 MSTORE PUSH1 0x4 ADD PUSH1 0x40 MLOAD DUP1 SWAP2 SUB SWAP1 REVERT JUMPDEST PUSH1 0x0 DUP2 DUP2 MSTORE PUSH1 0x20 DUP2 SWAP1 MSTORE PUSH1 0x40 SWAP1 DUP2 SWAP1 KECCAK256 DUP1 SLOAD PUSH1 0xFF NOT AND PUSH1 0x1 OR SWAP1 SSTORE MLOAD CALLER SWAP1 DUP3 SWAP1 PUSH32 0x56BDD7A6BFB3E02C2A15F34FB273EB1FEDA472BEA190A7B66157F0F234E59365 SWAP1 PUSH2 0x49B SWAP1 DUP7 ISZERO ISZERO DUP2 MSTORE PUSH1 0x20 ADD SWAP1 JUMP JUMPDEST PUSH1 0x40 MLOAD DUP1 SWAP2 SUB SWAP1 LOG3 POP POP POP POP POP POP JUMP JUMPDEST PUSH1 0x40 MLOAD PUSH4 0x20A49E3 PUSH1 0xE5 SHL DUP2 MSTORE PUSH20 0x397A5F7F3DBD538F23DE225B51F532C34448DA9B SWAP1 PUSH4 0x41493C60 SWAP1 PUSH2 0x4F8 SWAP1 PUSH1 0x0 DUP1 MLOAD PUSH1 0x20 PUSH2 0x783 DUP4 CODECOPY DUP2 MLOAD SWAP2 MSTORE SWAP1 DUP9 SWAP1 DUP9 SWAP1 DUP9 SWAP1 DUP9 SWAP1 PUSH1 0x4 ADD PUSH2 0x6DC JUMP JUMPDEST PUSH1 0x0 PUSH1 0x40 MLOAD DUP1 DUP4 SUB DUP2 DUP7 DUP1 EXTCODESIZE ISZERO DUP1 ISZERO PUSH2 0x510 JUMPI PUSH1 0x0 DUP1 REVERT JUMPDEST POP GAS STATICCALL SWAP3 POP POP POP DUP1 ISZERO PUSH2 0x521 JUMPI POP PUSH1 0x1 JUMPDEST PUSH2 0x53E JUMPI PUSH1 0x40 MLOAD PUSH4 0x9BDE339 PUSH1 0xE0 SHL DUP2 MSTORE PUSH1 0x4 ADD PUSH1 0x40 MLOAD DUP1 SWAP2 SUB SWAP1 REVERT JUMPDEST PUSH1 0x0 DUP1 PUSH2 0x54D DUP6 DUP8 ADD DUP8 PUSH2 0x746 JUMP JUMPDEST PUSH1 0x0 DUP3 DUP2 MSTORE PUSH1 0x2 PUSH1 0x20 MSTORE PUSH1 0x40 SWAP1 KECCAK256 SLOAD SWAP2 SWAP4 POP SWAP2 POP PUSH1 0x1 PUSH1 0x1 PUSH1 0xA0 SHL SUB AND ISZERO PUSH2 0x588 JUMPI PUSH1 0x40 MLOAD PUSH4 0xF2A973DF PUSH1 0xE0 SHL DUP2 MSTORE PUSH1 0x4 ADD PUSH1 0x40 MLOAD DUP1 SWAP2 SUB SWAP1 REVERT JUMPDEST PUSH1 0x0 DUP3 DUP2 MSTORE PUSH1 0x2 PUSH1 0x20 MSTORE PUSH1 0x40 DUP1 DUP3 KECCAK256 DUP1 SLOAD PUSH1 0x1 PUSH1 0x1 PUSH1 0xA0 SHL SUB NOT AND PUSH1 0x1 PUSH1 0x1 PUSH1 0xA0 SHL SUB DUP6 AND SWAP1 DUP2 OR SWAP1 SWAP2 SSTORE SWAP1 MLOAD SWAP1 SWAP2 DUP5 SWAP2 PUSH32 0x220EF4882713FE65BBA9E73E52963773127EF54F80A02375C1D125C082BC5F02 SWAP2 SWAP1 LOG3 POP POP POP POP POP POP JUMP JUMPDEST PUSH1 0x0 DUP1 DUP4 PUSH1 0x1F DUP5 ADD SLT PUSH2 0x5F7 JUMPI PUSH1 0x0 DUP1 REVERT JUMPDEST POP DUP2 CALLDATALOAD PUSH8 0xFFFFFFFFFFFFFFFF DUP2 GT ISZERO PUSH2 0x60F JUMPI PUSH1 0x0 DUP1 REVERT JUMPDEST PUSH1 0x20 DUP4 ADD SWAP2 POP DUP4 PUSH1 0x20 DUP3 DUP6 ADD ADD GT ISZERO PUSH2 0x627 JUMPI PUSH1 0x0 DUP1 REVERT JUMPDEST SWAP3 POP SWAP3 SWAP1 POP JUMP JUMPDEST PUSH1 0x0 DUP1 PUSH1 0x0 DUP1 PUSH1 0x40 DUP6 DUP8 SUB SLT ISZERO PUSH2 0x644 JUMPI PUSH1 0x0 DUP1 REVERT JUMPDEST DUP5 CALLDATALOAD PUSH8 0xFFFFFFFFFFFFFFFF DUP1 DUP3 GT ISZERO PUSH2 0x65C JUMPI PUSH1 0x0 DUP1 REVERT JUMPDEST PUSH2 0x668 DUP9 DUP4 DUP10 ADD PUSH2 0x5E5 JUMP JUMPDEST SWAP1 SWAP7 POP SWAP5 POP PUSH1 0x20 DUP8 ADD CALLDATALOAD SWAP2 POP DUP1 DUP3 GT ISZERO PUSH2 0x681 JUMPI PUSH1 0x0 DUP1 REVERT JUMPDEST POP PUSH2 0x68E DUP8 DUP3 DUP9 ADD PUSH2 0x5E5 JUMP JUMPDEST SWAP6 SWAP9 SWAP5 SWAP8 POP SWAP6 POP POP POP POP JUMP JUMPDEST PUSH1 0x0 PUSH1 0x20 DUP3 DUP5 SUB SLT ISZERO PUSH2 0x6AC JUMPI PUSH1 0x0 DUP1 REVERT JUMPDEST POP CALLDATALOAD SWAP2 SWAP1 POP JUMP JUMPDEST DUP2 DUP4 MSTORE DUP2 DUP2 PUSH1 0x20 DUP6 ADD CALLDATACOPY POP PUSH1 0x0 DUP3 DUP3 ADD PUSH1 0x20 SWAP1 DUP2 ADD SWAP2 SWAP1 SWAP2 MSTORE PUSH1 0x1F SWAP1 SWAP2 ADD PUSH1 0x1F NOT AND SWAP1 SWAP2 ADD ADD SWAP1 JUMP JUMPDEST DUP6 DUP2 MSTORE PUSH1 0x60 PUSH1 0x20 DUP3 ADD MSTORE PUSH1 0x0 PUSH2 0x6F6 PUSH1 0x60 DUP4 ADD DUP7 DUP9 PUSH2 0x6B3 JUMP JUMPDEST DUP3 DUP2 SUB PUSH1 0x40 DUP5 ADD MSTORE PUSH2 0x709 DUP2 DUP6 DUP8 PUSH2 0x6B3 JUMP JUMPDEST SWAP9 SWAP8 POP POP POP POP POP POP POP POP JUMP JUMPDEST PUSH1 0x0 DUP1 PUSH1 0x40 DUP4 DUP6 SUB SLT ISZERO PUSH2 0x728 JUMPI PUSH1 0x0 DUP1 REVERT JUMPDEST DUP3 CALLDATALOAD DUP1 ISZERO ISZERO DUP2 EQ PUSH2 0x738 JUMPI PUSH1 0x0 DUP1 REVERT JUMPDEST SWAP5 PUSH1 0x20 SWAP4 SWAP1 SWAP4 ADD CALLDATALOAD SWAP4 POP POP POP JUMP JUMPDEST PUSH1 0x0 DUP1 PUSH1 0x40 DUP4 DUP6 SUB SLT ISZERO PUSH2 0x759 JUMPI PUSH1 0x0 DUP1 REVERT JUMPDEST DUP3 CALLDATALOAD SWAP2 POP PUSH1 0x20 DUP4 ADD CALLDATALOAD PUSH1 0x1 PUSH1 0x1 PUSH1 0xA0 SHL SUB DUP2 AND DUP2 EQ PUSH2 0x777 JUMPI PUSH1 0x0 DUP1 REVERT JUMPDEST DUP1 SWAP2 POP POP SWAP3 POP SWAP3 SWAP1 POP JUMP INVALID STOP SHR 0xB3 SWAP12 0x2A SAR 0xCE GASLIMIT LOG4 0x25 0xE1 0xBE EXTCODECOPY LOG0 SWAP9 0xE2 PUSH28 0x1D6DC8B898EE6F6EE1108144EECF1DA2646970667358221220D5BBD9 0xAF 0x4B PUSH26 0xEEDB40310390491C3C14D0B4A9B1FADAA75C0480015892097E94 PUSH5 0x736F6C6343 STOP ADDMOD EQ STOP CALLER "},"methodIdentifiers":{"PASSPORT_VKEY()":"79813b3d","SP1_VERIFIER()":"78dbfee1","bindWallet(bytes,bytes)":"b47034f7","getBoundWallet(bytes32)":"e4fe7f47","isAgeVerified(bytes32)":"98331283","isNationalityVerified(bytes32)":"eb24a314","passportWalletBindings(bytes32)":"29505fe4","verifiedAgePassports(bytes32)":"afcdbfdc","verifiedNationalityPassports(bytes32)":"11e4810f","verifyAge(bytes,bytes)":"46aea432","verifyNationality(bytes,bytes)":"11cc1cee"}}}}}