{"contracts/SP1VerifierGateway.sol":{"SP1VerifierGateway":{"abi":[{"anonymous":false,"inputs":[{"indexed":true,"internalType":"bytes32","name":"vkey","type":"bytes32"},{"indexed":false,"internalType":"bytes","name":"publicValues","type":"bytes"}],"name":"ProofVerified","type":"event"},{"inputs":[],"name":"PASSPORT_VKEY","outputs":[{"internalType":"bytes32","name":"","type":"bytes32"}],"stateMutability":"view","type":"function"},{"inputs":[],"name":"SP1_VERIFIER","outputs":[{"internalType":"address","name":"","type":"address"}],"stateMutability":"view","type":"function"},{"inputs":[{"internalType":"bytes","name":"publicValues","type":"bytes"},{"internalType":"bytes","name":"proofBytes","type":"bytes"}],"name":"verifyPassportProof","outputs":[],"stateMutability":"view","type":"function"}],"evm":{"bytecode":{"linkReferences":{},"object":"608060405234801561001057600080fd5b506102a8806100206000396000f3fe608060405234801561001057600080fd5b50600436106100415760003560e01c806378dbfee11461004657806379813b3d1461007e578063e718377f146100b2575b600080fd5b61006173397a5f7f3dbd538f23de225b51f532c34448da9b81565b6040516001600160a01b0390911681526020015b60405180910390f35b6100a47e1cb39b2a1dce45a425e1be3ca098e27b1d6dc8b898ee6f6ee1108144eecf1d81565b604051908152602001610075565b6100c56100c03660046101a4565b6100c7565b005b60405163020a49e360e51b815273397a5f7f3dbd538f23de225b51f532c34448da9b906341493c6090610125907e1cb39b2a1dce45a425e1be3ca098e27b1d6dc8b898ee6f6ee1108144eecf1d908890889088908890600401610239565b60006040518083038186803b15801561013d57600080fd5b505afa158015610151573d6000803e3d6000fd5b5050505050505050565b60008083601f84011261016d57600080fd5b50813567ffffffffffffffff81111561018557600080fd5b60208301915083602082850101111561019d57600080fd5b9250929050565b600080600080604085870312156101ba57600080fd5b843567ffffffffffffffff808211156101d257600080fd5b6101de8883890161015b565b909650945060208701359150808211156101f757600080fd5b506102048782880161015b565b95989497509550505050565b81835281816020850137506000828201602090810191909152601f909101601f19169091010190565b858152606060208201526000610253606083018688610210565b8281036040840152610266818587610210565b9897505050505050505056fea26469706673582212208e616d7095861f72a7839bb12da631fe324dadbbe7a63f00bc60fc1cfd534fe164736f6c63430008140033","opcodes":"PUSH1 0x80 PUSH1 0x40 MSTORE CALLVALUE DUP1 ISZERO PUSH2 0x10 JUMPI PUSH1 0x0 DUP1 REVERT JUMPDEST POP PUSH2 0x2A8 DUP1 PUSH2 0x20 PUSH1 0x0 CODECOPY PUSH1 0x0 RETURN INVALID PUSH1 0x80 PUSH1 0x40 MSTORE CALLVALUE DUP1 ISZERO PUSH2 0x10 JUMPI PUSH1 0x0 DUP1 REVERT JUMPDEST POP PUSH1 0x4 CALLDATASIZE LT PUSH2 0x41 JUMPI PUSH1 0x0 CALLDATALOAD PUSH1 0xE0 SHR DUP1 PUSH4 0x78DBFEE1 EQ PUSH2 0x46 JUMPI DUP1 PUSH4 0x79813B3D EQ PUSH2 0x7E JUMPI DUP1 PUSH4 0xE718377F EQ PUSH2 0xB2 JUMPI JUMPDEST PUSH1 0x0 DUP1 REVERT JUMPDEST PUSH2 0x61 PUSH20 0x397A5F7F3DBD538F23DE225B51F532C34448DA9B DUP2 JUMP JUMPDEST PUSH1 0x40 MLOAD PUSH1 0x1 PUSH1 0x1 PUSH1 0xA0 SHL SUB SWAP1 SWAP2 AND DUP2 MSTORE PUSH1 0x20 ADD JUMPDEST PUSH1 0x40 MLOAD DUP1 SWAP2 SUB SWAP1 RETURN JUMPDEST PUSH2 0xA4 PUSH31 0x1CB39B2A1DCE45A425E1BE3CA098E27B1D6DC8B898EE6F6EE1108144EECF1D DUP2 JUMP JUMPDEST PUSH1 0x40 MLOAD SWAP1 DUP2 MSTORE PUSH1 0x20 ADD PUSH2 0x75 JUMP JUMPDEST PUSH2 0xC5 PUSH2 0xC0 CALLDATASIZE PUSH1 0x4 PUSH2 0x1A4 JUMP JUMPDEST PUSH2 0xC7 JUMP JUMPDEST STOP JUMPDEST PUSH1 0x40 MLOAD PUSH4 0x20A49E3 PUSH1 0xE5 SHL DUP2 MSTORE PUSH20 0x397A5F7F3DBD538F23DE225B51F532C34448DA9B SWAP1 PUSH4 0x41493C60 SWAP1 PUSH2 0x125 SWAP1 PUSH31 0x1CB39B2A1DCE45A425E1BE3CA098E27B1D6DC8B898EE6F6EE1108144EECF1D SWAP1 DUP9 SWAP1 DUP9 SWAP1 DUP9 SWAP1 DUP9 SWAP1 PUSH1 0x4 ADD PUSH2 0x239 JUMP JUMPDEST PUSH1 0x0 PUSH1 0x40 MLOAD DUP1 DUP4 SUB DUP2 DUP7 DUP1 EXTCODESIZE ISZERO DUP1 ISZERO PUSH2 0x13D JUMPI PUSH1 0x0 DUP1 REVERT JUMPDEST POP GAS STATICCALL ISZERO DUP1 ISZERO PUSH2 0x151 JUMPI RETURNDATASIZE PUSH1 0x0 DUP1 RETURNDATACOPY RETURNDATASIZE PUSH1 0x0 REVERT JUMPDEST POP POP POP POP POP POP POP POP JUMP JUMPDEST PUSH1 0x0 DUP1 DUP4 PUSH1 0x1F DUP5 ADD SLT PUSH2 0x16D JUMPI PUSH1 0x0 DUP1 REVERT JUMPDEST POP DUP2 CALLDATALOAD PUSH8 0xFFFFFFFFFFFFFFFF DUP2 GT ISZERO PUSH2 0x185 JUMPI PUSH1 0x0 DUP1 REVERT JUMPDEST PUSH1 0x20 DUP4 ADD SWAP2 POP DUP4 PUSH1 0x20 DUP3 DUP6 ADD ADD GT ISZERO PUSH2 0x19D JUMPI PUSH1 0x0 DUP1 REVERT JUMPDEST SWAP3 POP SWAP3 SWAP1 POP JUMP JUMPDEST PUSH1 0x0 DUP1 PUSH1 0x0 DUP1 PUSH1 0x40 DUP6 DUP8 SUB SLT ISZERO PUSH2 0x1BA JUMPI PUSH1 0x0 DUP1 REVERT JUMPDEST DUP5 CALLDATALOAD PUSH8 0xFFFFFFFFFFFFFFFF DUP1 DUP3 GT ISZERO PUSH2 0x1D2 JUMPI PUSH1 0x0 DUP1 REVERT JUMPDEST PUSH2 0x1DE DUP9 DUP4 DUP10 ADD PUSH2 0x15B JUMP JUMPDEST SWAP1 SWAP7 POP SWAP5 POP PUSH1 0x20 DUP8 ADD CALLDATALOAD SWAP2 POP DUP1 DUP3 GT ISZERO PUSH2 0x1F7 JUMPI PUSH1 0x0 DUP1 REVERT JUMPDEST POP PUSH2 0x204 DUP8 DUP3 DUP9 ADD PUSH2 0x15B JUMP JUMPDEST SWAP6 SWAP9 SWAP5 SWAP8 POP SWAP6 POP POP POP POP JUMP JUMPDEST DUP2 DUP4 MSTORE DUP2 DUP2 PUSH1 0x20 DUP6 ADD CALLDATACOPY POP PUSH1 0x0 DUP3 DUP3 ADD PUSH1 0x20 SWAP1 DUP2 ADD SWAP2 SWAP1 SWAP2 MSTORE PUSH1 0x1F SWAP1 SWAP2 ADD PUSH1 0x1F NOT AND SWAP1 SWAP2 ADD ADD SWAP1 JUMP JUMPDEST DUP6 DUP2 MSTORE PUSH1 0x60 PUSH1 0x20 DUP3 ADD MSTORE PUSH1 0x0 PUSH2 0x253 PUSH1 0x60 DUP4 ADD DUP7 DUP9 PUSH2 0x210 JUMP JUMPDEST DUP3 DUP2 SUB PUSH1 0x40 DUP5 ADD MSTORE PUSH2 0x266 DUP2 DUP6 DUP8 PUSH2 0x210 JUMP JUMPDEST SWAP9 SWAP8 POP POP POP POP POP POP POP POP JUMP INVALID LOG2 PUSH5 0x6970667358 0x22 SLT KECCAK256 DUP15 PUSH2 0x6D70 SWAP6 DUP7 0x1F PUSH19 0xA7839BB12DA631FE324DADBBE7A63F00BC60FC SHR REVERT MSTORE8 0x4F 0xE1 PUSH5 0x736F6C6343 STOP ADDMOD EQ STOP CALLER "},"methodIdentifiers":{"PASSPORT_VKEY()":"79813b3d","SP1_VERIFIER()":"78dbfee1","verifyPassportProof(bytes,bytes)":"e718377f"}}}}}